:10000000FEEF7FF0FF00FF00FF00FF00FF00FF009A
:101000000000010E316E2B50D8B409EF08F00BEF41
:1010100008F01BEF08F02B50D96EDA6ADF30E832A7
:10102000E832070B2C6E070E2C6419EF08F01BEF4B
:1010300008F071EF08F0316A87EF08F02B50D96E95
:10104000DA6ADF30E832E832070B2C6E010E2D6EC3
:101050002C2A2DEF08F0D8902D362C2E2BEF08F0EF
:101060002D50FF0A2E6E2B50D96EDA6ADF50070B17
:10107000020DF350150FD96EDA6ADECF2FF0DDCFF7
:1010800030F02FC0D9FF30C0DAFF2E50DF1687EFC7
:1010900008F02B50D96EDA6ADF30E832E832070BFD
:1010A0002C6E010E2D6E2C2A58EF08F0D8902D369C
:1010B0002C2E56EF08F02B50D96EDA6ADF50070B52
:1010C000020DF350150FD96EDA6ADECF2EF0DDCFA8
:1010D0002FF02EC0D9FF2FC0DAFF2D50DF1287EF7F
:1010E00008F02B50D96EDA6ADFBC79EF08F07CEF9C
:1010F00008F0010E7DEF08F0000E000AD8B41EEFD4
:1011000008F0010AD8B449EF08F01BEF08F031509D
:1011100012002B50D8B48FEF08F091EF08F0A1EF38
:1011200008F02B50D96EDA6ADF30E832E832070B6C
:101130002D6E070E2D649FEF08F0A1EF08F0F6EF7B
:1011400008F00BEF09F02B50D96EDA6ADF30E83285
:10115000E832070B2D6E010E2E6E2D2AB2EF08F02D
:10116000D8902E362D2EB0EF08F02E50FF0A2F6E9D
:101170002B50D96EDA6ADF50070B020DF3500B0FBC
:10118000D96EDA6ADECF30F0DDCF31F030C0D9FF72
:1011900031C0DAFF2F50DF160BEF09F02B50D96E5C
:1011A000DA6ADF30E832E832070B2D6E010E2E6E60
:1011B0002D2ADDEF08F0D8902E362D2EDBEF08F02B
:1011C0002B50D96EDA6ADF50070B020DF3500B0F6C
:1011D000D96EDA6ADECF2FF0DDCF30F02FC0D9FF25
:1011E00030C0DAFF2E50DF120BEF09F02C502D6EBD
:1011F0002E6A2E50000AD8B400EF09F0A1EF08F0D3
:101200002D50000AD8B4A3EF08F0010AD8B4CEEFED
:1012100008F0A1EF08F012009EEC0BF0250E316EE5
:10122000280E326E82EC09F0486E2850D8A41BEFCD
:1012300009F01DEF09F02DEF09F0414A422AF50EA1
:10124000415C010E4258D8A028EF09F02AEF09F0BE
:1012500033EF09F0206A33EF09F0000E426E000E02
:10126000416E010E206E1F502018D8B43AEF09F0DD
:101270003CEF09F00EEF09F020C01FF02050D8A479
:1012800044EF09F046EF09F00EEF09F0030E3F18A6
:101290004010D8A44EEF09F050EF09F054EF09F0D8
:1012A000000E406E000E3F6E3F4A402A64EF09F088
:1012B0004FEC0BF00EEF09F0F2EC0AF00EEF09F034
:1012C000BFEC0AF00EEF09F03FC03DF040C03EF029
:1012D0003E50000AD8B46FEF09F07EEF09F03D50A0
:1012E000010AD8B458EF09F0030AD8B45CEF09F04A
:1012F000010AD8B460EF09F07EEF09F00EEF09F0B3
:10130000FEEF7FF0356A3150D8B489EF09F08BEFEA
:1013100009F093EF09F03250D8A491EF09F093EF60
:1013200009F096EF09F0346AD7EF09F031C02BF0DD
:10133000350E2C6ED9EC09F03150D96EDA6A020EF6
:10134000D926DF50D8A4A7EF09F0A9EF09F0BEEF26
:1013500009F03504D8A4AFEF09F0B1EF09F0B7EF09
:1013600009F03250D96EDA6ADF6AD5EF09F03250EF
:10137000D96EDA6A010EDF6ED5EF09F03150D96E01
:10138000DA6A020ED926DE04D8A4C9EF09F0CBEF41
:1013900009F0D5EF09F03504D8A4D1EF09F0D3EF67
:1013A00009F0B1EF09F0B7EF09F0010E346E3450D7
:1013B00012002B50D8B4DFEF09F0E1EF09F0F1EFA4
:1013C00009F02B50D96EDA6ADF30E832E832070BC9
:1013D0002D6E070E2D64EFEF09F0F1EF09F0F3EF3A
:1013E00009F01DEF0AF02C50D96EDA6A2B50E16E2D
:1013F000E26AE730E832E832070B2D6E2B50E16EDF
:10140000E26AE750070B020DF350010FE16EE26A4A
:10141000E6CF2EF0E5CF2FF02EC0E1FF2FC0E2FF88
:10142000E750306E2D2A17EF0AF0D89030322D2E6B
:1014300015EF0AF03050010BDF6E1200010E366E10
:101440003450D8A426EF0AF028EF0AF02BEF0AF068
:10145000366A53EF0AF047C037F03450D96EDA6A73
:10146000DF500F0B356E37503518F80B3518376EC7
:101470003450D96EDA6ADF38070B356E354635469B
:10148000354637503518C70B3518376E379C3450F2
:10149000D96EDA6ADFAE02D0378E01D0379E370EB2
:1014A000326E25EC0BF0365012003250D8A45BEFB0
:1014B0000AF05DEF0AF05FEF0AF089EF0AF046C02C
:1014C00034F03250D96EDA6ADF500F0B336E34507D
:1014D0003318F80B3318346E3250D96EDA6ADF38AD
:1014E000070B336E33463346334634503318C70B3D
:1014F0003318346E349C3250D96EDA6ADFAE02D0C3
:10150000348E01D0349E340E2B6E010E2C6E89EC7D
:1015100008F012003250D8A490EF0AF092EF0AF0CF
:1015200094EF0AF0BEEF0AF045C034F03250D96EA5
:10153000DA6ADF500F0B336E34503318F80B331860
:10154000346E3250D96EDA6ADF38070B336E3346A9
:101550003346334634503318C70B3318346E349C3B
:101560003250D96EDA6ADFAE02D0348E01D0349EAA
:10157000340E2B6E000E2C6E89EC08F01200000E5B
:10158000386E000E376E2A0E326E55EC0AF0060EDB
:10159000366E130E356EAE0EE82EFED7352EFCD706
:1015A000362EFAD72A0E326E8AEC0AF0060E366E06
:1015B000130E356EAE0EE82EFED7352EFCD7362E26
:1015C000FAD7374A382A38BEEFEF0AF0385009E127
:1015D000030E375CD8A0EFEF0AF0F1EF0AF0C3EF8B
:1015E0000AF01200000E386E000E376E2A0E326EB0
:1015F00055EC0AF0060E366E130E356EAE0EE82E62
:10160000FED7352EFCD7362EFAD72A0E326E8AEC4C
:101610000AF0060E366E130E356EAE0EE82EFED7AD
:10162000352EFCD7362EFAD7374A382A38BE22EF65
:101630000BF0385009E1020E375CD8A022EF0BF016
:1016400024EF0BF0F6EF0AF012003250D8B42BEF73
:101650000BF02DEF0BF03DEF0BF03250D96EDA6A44
:10166000DF30E832E832070B336E070E33643BEFAE
:101670000BF03DEF0BF03FEF0BF04EEF0BF032C0F5
:101680002BF001EC08F032C02BF03250D96EDA6A40
:10169000000EDFBE010E2C6E89EC08F012002A0E3F
:1016A000326E55EC0AF0060E366E130E356EAE0E27
:1016B000E82EFED7352EFCD7362EFAD72A0E326EFC
:1016C0008AEC0AF0060E366E130E356EAE0EE82E5C
:1016D000FED7352EFCD7362EFAD71200120EF66E34
:1016E000170EF76E000EF86E00EE01F010EE2AF005
:1016F0000900F5CFEEFFE550E150FAE100EE3FF0D2
:10170000090EEE6AE806FDE1000EF86E00010CEF2E
:1017100009F0800F810F820F830F840F890F8A0FCA
:101720008B0F8C0F8D0F920F930F940F950F960FB9
:10173000010101CB01014301000112022A0E346EA6
:101740001EEC0AF0486E290E346E1EEC0AF0486E4C
:10175000250E326EB3EC0BF0486E220E326EB3ECF7
:101760000BF0486E12003250D8A4B9EF0BF0BBEF6B
:101770000BF0BEEF0BF0336AC3EF0BF032C02BF06F
:1017800001EC08F0336E33501200FF00FF00FF0041
:10FFF000FF00FF00FF00FF00FF00FF006EEF0BF0AF
:020000040030CA
:0E000000FF02091EFF8181FF0FC00FE00F40BD
:00000001FF
